{
  "contractName": "HToken",
  "abi": [
    {
      "constant": true,
      "inputs": [],
      "name": "name",
      "outputs": [
        {
          "name": "",
          "type": "string"
        }
      ],
      "payable": false,
      "stateMutability": "view",
      "type": "function"
    },
    {
      "constant": true,
      "inputs": [],
      "name": "total_tokens",
      "outputs": [
        {
          "name": "",
          "type": "uint256"
        }
      ],
      "payable": false,
      "stateMutability": "view",
      "type": "function"
    },
    {
      "constant": true,
      "inputs": [],
      "name": "curprice",
      "outputs": [
        {
          "name": "",
          "type": "uint256"
        }
      ],
      "payable": false,
      "stateMutability": "view",
      "type": "function"
    },
    {
      "constant": true,
      "inputs": [],
      "name": "admin",
      "outputs": [
        {
          "name": "",
          "type": "address"
        }
      ],
      "payable": false,
      "stateMutability": "view",
      "type": "function"
    },
    {
      "inputs": [
        {
          "name": "value",
          "type": "uint256"
        },
        {
          "name": "price",
          "type": "uint256"
        }
      ],
      "payable": false,
      "stateMutability": "nonpayable",
      "type": "constructor"
    },
    {
      "constant": false,
      "inputs": [
        {
          "name": "_to",
          "type": "address"
        },
        {
          "name": "_value",
          "type": "uint256"
        }
      ],
      "name": "transfer",
      "outputs": [],
      "payable": false,
      "stateMutability": "nonpayable",
      "type": "function"
    },
    {
      "constant": false,
      "inputs": [
        {
          "name": "_amount",
          "type": "uint256"
        }
      ],
      "name": "buyTokens",
      "outputs": [],
      "payable": false,
      "stateMutability": "nonpayable",
      "type": "function"
    },
    {
      "constant": false,
      "inputs": [
        {
          "name": "_amount",
          "type": "uint256"
        }
      ],
      "name": "sellTokens",
      "outputs": [],
      "payable": false,
      "stateMutability": "nonpayable",
      "type": "function"
    },
    {
      "constant": false,
      "inputs": [],
      "name": "depositEther",
      "outputs": [],
      "payable": true,
      "stateMutability": "payable",
      "type": "function"
    },
    {
      "constant": false,
      "inputs": [
        {
          "name": "amountInWei",
          "type": "uint256"
        }
      ],
      "name": "withdrawEther",
      "outputs": [],
      "payable": false,
      "stateMutability": "nonpayable",
      "type": "function"
    },
    {
      "constant": true,
      "inputs": [],
      "name": "checkBalanceEther",
      "outputs": [
        {
          "name": "",
          "type": "uint256"
        }
      ],
      "payable": false,
      "stateMutability": "view",
      "type": "function"
    },
    {
      "constant": false,
      "inputs": [
        {
          "name": "_to",
          "type": "address"
        },
        {
          "name": "_value",
          "type": "uint256"
        }
      ],
      "name": "createAllowance",
      "outputs": [],
      "payable": false,
      "stateMutability": "nonpayable",
      "type": "function"
    },
    {
      "constant": false,
      "inputs": [
        {
          "name": "_to",
          "type": "address"
        },
        {
          "name": "_value",
          "type": "uint256"
        }
      ],
      "name": "payAllowances",
      "outputs": [],
      "payable": false,
      "stateMutability": "nonpayable",
      "type": "function"
    },
    {
      "constant": false,
      "inputs": [
        {
          "name": "_value",
          "type": "uint256"
        }
      ],
      "name": "mint",
      "outputs": [],
      "payable": false,
      "stateMutability": "nonpayable",
      "type": "function"
    },
    {
      "constant": false,
      "inputs": [
        {
          "name": "_value",
          "type": "uint256"
        }
      ],
      "name": "burn",
      "outputs": [],
      "payable": false,
      "stateMutability": "nonpayable",
      "type": "function"
    },
    {
      "constant": false,
      "inputs": [
        {
          "name": "price",
          "type": "uint256"
        }
      ],
      "name": "setCurPrice",
      "outputs": [],
      "payable": false,
      "stateMutability": "nonpayable",
      "type": "function"
    },
    {
      "constant": true,
      "inputs": [],
      "name": "checkBalance",
      "outputs": [
        {
          "name": "",
          "type": "uint256"
        }
      ],
      "payable": false,
      "stateMutability": "view",
      "type": "function"
    },
    {
      "constant": true,
      "inputs": [
        {
          "name": "_of",
          "type": "address"
        }
      ],
      "name": "balanceOf",
      "outputs": [
        {
          "name": "",
          "type": "uint256"
        }
      ],
      "payable": false,
      "stateMutability": "view",
      "type": "function"
    },
    {
      "constant": false,
      "inputs": [],
      "name": "destroyToken",
      "outputs": [],
      "payable": false,
      "stateMutability": "nonpayable",
      "type": "function"
    }
  ],
  "bytecode": "0x60806040523480156200001157600080fd5b506040516040806200181c83398101806040528101908080519060200190929190805190602001909291905050506040805190810160405280600681526020017f48746f6b656e0000000000000000000000000000000000000000000000000000815250600890805190602001906200008c92919062000148565b5081600181905550336000806101000a81548173ffffffffffffffffffffffffffffffffffffffff021916908373ffffffffffffffffffffffffffffffffffffffff16021790555081600460008060009054906101000a900473ffffffffffffffffffffffffffffffffffffffff1673ffffffffffffffffffffffffffffffffffffffff1673ffffffffffffffffffffffffffffffffffffffff16815260200190815260200160002081905550806002819055505050620001f7565b828054600181600116156101000203166002900490600052602060002090601f016020900481019282601f106200018b57805160ff1916838001178555620001bc565b82800160010185558215620001bc579182015b82811115620001bb5782518255916020019190600101906200019e565b5b509050620001cb9190620001cf565b5090565b620001f491905b80821115620001f0576000816000905550600101620001d6565b5090565b90565b61161580620002076000396000f3006080604052600436106100fc576000357c0100000000000000000000000000000000000000000000000000000000900463ffffffff16806306fdde031461010157806317604352146101915780632e4eaa15146101de5780633610724e146101f55780633bed33ce1461022257806342966c681461024f5780636c11bcd31461027c5780636c8f0f39146102a957806370a08231146102f657806398ea5fca1461034d578063a0712d6814610357578063a9059cbb14610384578063bcc0d661146103d1578063c64427ba146103fc578063c649083514610429578063c71daccb14610454578063d8222aee1461047f578063f851a440146104aa575b600080fd5b34801561010d57600080fd5b50610116610501565b6040518080602001828103825283818151815260200191508051906020019080838360005b8381101561015657808201518184015260208101905061013b565b50505050905090810190601f1680156101835780820380516001836020036101000a031916815260200191505b509250505060405180910390f35b34801561019d57600080fd5b506101dc600480360381019080803573ffffffffffffffffffffffffffffffffffffffff1690602001909291908035906020019092919050505061059f565b005b3480156101ea57600080fd5b506101f3610773565b005b34801561020157600080fd5b5061022060048036038101908080359060200190929190505050610808565b005b34801561022e57600080fd5b5061024d60048036038101908080359060200190929190505050610a17565b005b34801561025b57600080fd5b5061027a60048036038101908080359060200190929190505050610b9a565b005b34801561028857600080fd5b506102a760048036038101908080359060200190929190505050610cb1565b005b3480156102b557600080fd5b506102f4600480360381019080803573ffffffffffffffffffffffffffffffffffffffff16906020019092919080359060200190929190505050610eac565b005b34801561030257600080fd5b50610337600480360381019080803573ffffffffffffffffffffffffffffffffffffffff169060200190929190505050610fad565b6040518082815260200191505060405180910390f35b610355610ff6565b005b34801561036357600080fd5b50610382600480360381019080803590602001909291905050506110d3565b005b34801561039057600080fd5b506103cf600480360381019080803573ffffffffffffffffffffffffffffffffffffffff1690602001909291908035906020019092919050505061119d565b005b3480156103dd57600080fd5b506103e661134b565b6040518082815260200191505060405180910390f35b34801561040857600080fd5b5061042760048036038101908080359060200190929190505050611392565b005b34801561043557600080fd5b5061043e6113f7565b6040518082815260200191505060405180910390f35b34801561046057600080fd5b506104696113fd565b6040518082815260200191505060405180910390f35b34801561048b57600080fd5b50610494611444565b6040518082815260200191505060405180910390f35b3480156104b657600080fd5b506104bf61144a565b604051808273ffffffffffffffffffffffffffffffffffffffff1673ffffffffffffffffffffffffffffffffffffffff16815260200191505060405180910390f35b60088054600181600116156101000203166002900480601f0160208091040260200160405190810160405280929190818152602001828054600181600116156101000203166002900480156105975780601f1061056c57610100808354040283529160200191610597565b820191906000526020600020905b81548152906001019060200180831161057a57829003601f168201915b505050505081565b6000808373ffffffffffffffffffffffffffffffffffffffff16141515156105c657600080fd5b6000821115156105d557600080fd5b600760003373ffffffffffffffffffffffffffffffffffffffff1673ffffffffffffffffffffffffffffffffffffffff16815260200190815260200160002060000160009054906101000a900473ffffffffffffffffffffffffffffffffffffffff16905060008173ffffffffffffffffffffffffffffffffffffffff161415151561066057600080fd5b600760003373ffffffffffffffffffffffffffffffffffffffff1673ffffffffffffffffffffffffffffffffffffffff1681526020019081526020016000206001015482111515156106b157600080fd5b81600760003373ffffffffffffffffffffffffffffffffffffffff1673ffffffffffffffffffffffffffffffffffffffff1681526020019081526020016000206001016000828254039250508190555061076e600760003373ffffffffffffffffffffffffffffffffffffffff1673ffffffffffffffffffffffffffffffffffffffff16815260200190815260200160002060000160009054906101000a900473ffffffffffffffffffffffffffffffffffffffff16848461146f565b505050565b6000809054906101000a900473ffffffffffffffffffffffffffffffffffffffff1673ffffffffffffffffffffffffffffffffffffffff163373ffffffffffffffffffffffffffffffffffffffff161415156107ce57600080fd5b6000809054906101000a900473ffffffffffffffffffffffffffffffffffffffff1673ffffffffffffffffffffffffffffffffffffffff16ff5b600060025482029050600360003373ffffffffffffffffffffffffffffffffffffffff1673ffffffffffffffffffffffffffffffffffffffff16815260200190815260200160002054670de0b6b3a764000082021115151561086957600080fd5b600360003373ffffffffffffffffffffffffffffffffffffffff1673ffffffffffffffffffffffffffffffffffffffff16815260200190815260200160002054670de0b6b3a76400008202600360003373ffffffffffffffffffffffffffffffffffffffff1673ffffffffffffffffffffffffffffffffffffffff168152602001908152602001600020540310151561090157600080fd5b670de0b6b3a76400008102600360003373ffffffffffffffffffffffffffffffffffffffff1673ffffffffffffffffffffffffffffffffffffffff1681526020019081526020016000206000828254039250508190555081600460003373ffffffffffffffffffffffffffffffffffffffff1673ffffffffffffffffffffffffffffffffffffffff1681526020019081526020016000206000828254019250508190555081600460008060009054906101000a900473ffffffffffffffffffffffffffffffffffffffff1673ffffffffffffffffffffffffffffffffffffffff1673ffffffffffffffffffffffffffffffffffffffff168152602001908152602001600020600082825403925050819055505050565b6000670de0b6b3a76400008202905080600360003373ffffffffffffffffffffffffffffffffffffffff1673ffffffffffffffffffffffffffffffffffffffff1681526020019081526020016000205410151515610a7457600080fd5b600360003373ffffffffffffffffffffffffffffffffffffffff1673ffffffffffffffffffffffffffffffffffffffff1681526020019081526020016000205481600360003373ffffffffffffffffffffffffffffffffffffffff1673ffffffffffffffffffffffffffffffffffffffff1681526020019081526020016000205403101515610b0257600080fd5b80600360003373ffffffffffffffffffffffffffffffffffffffff1673ffffffffffffffffffffffffffffffffffffffff168152602001908152602001600020600082825403925050819055503373ffffffffffffffffffffffffffffffffffffffff166108fc829081150290604051600060405180830381858888f19350505050158015610b95573d6000803e3d6000fd5b505050565b600081111515610ba957600080fd5b80600460003373ffffffffffffffffffffffffffffffffffffffff1673ffffffffffffffffffffffffffffffffffffffff16815260200190815260200160002054111515610bf657600080fd5b6000809054906101000a900473ffffffffffffffffffffffffffffffffffffffff1673ffffffffffffffffffffffffffffffffffffffff163373ffffffffffffffffffffffffffffffffffffffff16141515610c5157600080fd5b80600460003373ffffffffffffffffffffffffffffffffffffffff1673ffffffffffffffffffffffffffffffffffffffff168152602001908152602001600020600082825403925050819055508060016000828254039250508190555050565b600060025482029050600460003373ffffffffffffffffffffffffffffffffffffffff1673ffffffffffffffffffffffffffffffffffffffff168152602001908152602001600020548211151515610d0857600080fd5b600460003373ffffffffffffffffffffffffffffffffffffffff1673ffffffffffffffffffffffffffffffffffffffff1681526020019081526020016000205482600460003373ffffffffffffffffffffffffffffffffffffffff1673ffffffffffffffffffffffffffffffffffffffff1681526020019081526020016000205403101515610d9657600080fd5b81600460003373ffffffffffffffffffffffffffffffffffffffff1673ffffffffffffffffffffffffffffffffffffffff1681526020019081526020016000206000828254039250508190555081600460008060009054906101000a900473ffffffffffffffffffffffffffffffffffffffff1673ffffffffffffffffffffffffffffffffffffffff1673ffffffffffffffffffffffffffffffffffffffff16815260200190815260200160002060008282540192505081905550670de0b6b3a76400008102600360003373ffffffffffffffffffffffffffffffffffffffff1673ffffffffffffffffffffffffffffffffffffffff168152602001908152602001600020600082825401925050819055505050565b60008273ffffffffffffffffffffffffffffffffffffffff1614151515610ed257600080fd5b600081111515610ee157600080fd5b33600760008473ffffffffffffffffffffffffffffffffffffffff1673ffffffffffffffffffffffffffffffffffffffff16815260200190815260200160002060000160006101000a81548173ffffffffffffffffffffffffffffffffffffffff021916908373ffffffffffffffffffffffffffffffffffffffff16021790555080600760008473ffffffffffffffffffffffffffffffffffffffff1673ffffffffffffffffffffffffffffffffffffffff168152602001908152602001600020600101819055505050565b6000600460008373ffffffffffffffffffffffffffffffffffffffff1673ffffffffffffffffffffffffffffffffffffffff168152602001908152602001600020549050919050565b600360003373ffffffffffffffffffffffffffffffffffffffff1673ffffffffffffffffffffffffffffffffffffffff1681526020019081526020016000205434600360003373ffffffffffffffffffffffffffffffffffffffff1673ffffffffffffffffffffffffffffffffffffffff168152602001908152602001600020540111151561108457600080fd5b34600360003373ffffffffffffffffffffffffffffffffffffffff1673ffffffffffffffffffffffffffffffffffffffff16815260200190815260200160002060008282540192505081905550565b6000811115156110e257600080fd5b6000809054906101000a900473ffffffffffffffffffffffffffffffffffffffff1673ffffffffffffffffffffffffffffffffffffffff163373ffffffffffffffffffffffffffffffffffffffff1614151561113d57600080fd5b80600460003373ffffffffffffffffffffffffffffffffffffffff1673ffffffffffffffffffffffffffffffffffffffff168152602001908152602001600020600082825401925050819055508060016000828254019250508190555050565b60008273ffffffffffffffffffffffffffffffffffffffff16141515156111c357600080fd5b6000811115156111d257600080fd5b80600460003373ffffffffffffffffffffffffffffffffffffffff1673ffffffffffffffffffffffffffffffffffffffff1681526020019081526020016000205411151561121f57600080fd5b600460008373ffffffffffffffffffffffffffffffffffffffff1673ffffffffffffffffffffffffffffffffffffffff1681526020019081526020016000205481600460008573ffffffffffffffffffffffffffffffffffffffff1673ffffffffffffffffffffffffffffffffffffffff16815260200190815260200160002054011115156112ad57600080fd5b80600460003373ffffffffffffffffffffffffffffffffffffffff1673ffffffffffffffffffffffffffffffffffffffff1681526020019081526020016000206000828254039250508190555080600460008473ffffffffffffffffffffffffffffffffffffffff1673ffffffffffffffffffffffffffffffffffffffff168152602001908152602001600020600082825401925050819055505050565b6000600360003373ffffffffffffffffffffffffffffffffffffffff1673ffffffffffffffffffffffffffffffffffffffff16815260200190815260200160002054905090565b6000809054906101000a900473ffffffffffffffffffffffffffffffffffffffff1673ffffffffffffffffffffffffffffffffffffffff163373ffffffffffffffffffffffffffffffffffffffff161415156113ed57600080fd5b8060028190555050565b60015481565b6000600460003373ffffffffffffffffffffffffffffffffffffffff1673ffffffffffffffffffffffffffffffffffffffff16815260200190815260200160002054905090565b60025481565b6000809054906101000a900473ffffffffffffffffffffffffffffffffffffffff1681565b80600460008573ffffffffffffffffffffffffffffffffffffffff1673ffffffffffffffffffffffffffffffffffffffff168152602001908152602001600020541115156114bc57600080fd5b600460008373ffffffffffffffffffffffffffffffffffffffff1673ffffffffffffffffffffffffffffffffffffffff1681526020019081526020016000205481600460008573ffffffffffffffffffffffffffffffffffffffff1673ffffffffffffffffffffffffffffffffffffffff168152602001908152602001600020540111151561154a57600080fd5b80600460008573ffffffffffffffffffffffffffffffffffffffff1673ffffffffffffffffffffffffffffffffffffffff1681526020019081526020016000206000828254039250508190555080600460008473ffffffffffffffffffffffffffffffffffffffff1673ffffffffffffffffffffffffffffffffffffffff168152602001908152602001600020600082825401925050819055505050505600a165627a7a7230582086facb35aa8759ac3f7f17c7c991dee7ecd1ae1754ae5ab9a8c3400277efff620029",
  "source": "pragma solidity ^0.4.11;\r\ncontract HToken{\r\n    address public admin;\r\n    uint256 public total_tokens;\r\n    uint256 public curprice;\r\n    mapping(address=>uint)balanceForEther;\r\n    mapping(address=>uint) balances;\r\n    struct Offer{\r\n        address who;\r\n        uint amount;\r\n    }\r\n    struct orderBook{\r\n        mapping(uint=>Offer) offers;\r\n        uint256 offerKey;\r\n        uint256 offerLength;\r\n    }\r\n    struct Allowance{  \r\n       \r\n        \r\n        address _from;\r\n        uint256 _commonAmt;\r\n        \r\n    }\r\n    mapping(uint=>orderBook) buyBook;\r\n    \r\n    mapping(uint=>orderBook) sellBook;\r\n    mapping(address=>Allowance) allowances;\r\n    string public name;\r\n   function HToken(uint256 value,uint256 price){\r\n        name=\"Htoken\";\r\n        total_tokens=value;\r\n        admin=msg.sender;\r\n        balances[admin]=value;\r\n        curprice=price;\r\n    }\r\n    function transfer(address _to,uint256 _value) public{\r\n        require(_to!=0x00);\r\n        require(_value>0);\r\n        require(balances[msg.sender]>_value);\r\n        require(balances[_to]+_value>balances[_to]);\r\n        balances[msg.sender]-=_value;\r\n        balances[_to]+=_value;\r\n        \r\n        \r\n    }\r\n    function transferFrom(address _from,address _to,uint256 _value) private{\r\n       require(balances[_from]>_value);\r\n        require(balances[_to]+_value>balances[_to]);\r\n        balances[_from]-=_value;\r\n        balances[_to]+=_value;\r\n    }\r\n    function buyTokens(uint256 _amount) {\r\n       var  real_amount=_amount*curprice;\r\n        require(real_amount*1000000000000000000<=balanceForEther[msg.sender]);\r\n        require(balanceForEther[msg.sender]-real_amount*1000000000000000000<balanceForEther[msg.sender]);\r\n        balanceForEther[msg.sender]-=real_amount*1000000000000000000;\r\n        balances[msg.sender]+=_amount;\r\n        balances[admin]-=_amount;\r\n        \r\n           \r\n    }\r\n     function sellTokens(uint256 _amount) {\r\n       var  real_amount=_amount*curprice;\r\n        require(_amount<=balances[msg.sender]);\r\n        require(balances[msg.sender]-_amount<balances[msg.sender]);\r\n        balances[msg.sender]-=_amount;\r\n        balances[admin]+=_amount;\r\n        balanceForEther[msg.sender]+=real_amount*1000000000000000000;\r\n       \r\n        \r\n           \r\n    }\r\n    function depositEther() public payable{\r\n        require(balanceForEther[msg.sender]+msg.value>balanceForEther[msg.sender]);\r\n        balanceForEther[msg.sender]+=msg.value;\r\n        \r\n        \r\n    }\r\n    \r\n    function withdrawEther(uint256 amountInWei) public{\r\n        uint256 amountInEther=amountInWei*1000000000000000000;\r\n        require(balanceForEther[msg.sender]>=amountInEther);\r\n        require(balanceForEther[msg.sender]-amountInEther<balanceForEther[msg.sender]);\r\n        balanceForEther[msg.sender]-=amountInEther;\r\n        msg.sender.transfer(amountInEther);\r\n    }\r\n    function checkBalanceEther() constant public returns (uint){\r\n        return balanceForEther[msg.sender];\r\n    }\r\n    // function transferEther(address _to,uint256 _value) payable{\r\n    //     require(_value>0);\r\n    //     require(_to!=0x00);\r\n    //   _to.transfer(_value );\r\n    // }\r\n    \r\n    \r\n    function createAllowance(address _to,uint256 _value) public{\r\n       require(_to!=0x00);\r\n       require(_value>0);\r\n       \r\n        \r\n        allowances[_to]._from=msg.sender;\r\n        allowances[_to]._commonAmt=_value;\r\n     \r\n        \r\n    }\r\n    function payAllowances(address _to,uint256 _value) public{\r\n        require(_to!=0x00);\r\n        require(_value>0);\r\n        address allower=allowances[msg.sender]._from;\r\n        require(allower!=0x00);\r\n        require(_value<=allowances[msg.sender]._commonAmt);\r\n        allowances[msg.sender]._commonAmt-=_value;\r\n        transferFrom(allowances[msg.sender]._from,_to,_value);\r\n        \r\n        \r\n    }\r\n    function mint(uint256 _value) public{\r\n        require(_value>0);\r\n        require(msg.sender==admin);\r\n        balances[msg.sender]+=_value;\r\n        total_tokens+=_value;\r\n        \r\n    }\r\n     function burn(uint256 _value) public{\r\n        require(_value>0);\r\n        require(balances[msg.sender]>_value);\r\n        require(msg.sender==admin);\r\n        balances[msg.sender]-=_value;\r\n        total_tokens-=_value;\r\n        \r\n    }\r\n    function setCurPrice(uint256 price) public{\r\n        require(msg.sender==admin);\r\n        curprice=price;\r\n        \r\n    }\r\n   \r\n    function checkBalance() constant returns (uint256)  {\r\n        return balances[msg.sender];\r\n        \r\n    }\r\n     function balanceOf(address _of) constant returns (uint256)  {\r\n        return balances[_of];\r\n        \r\n    }\r\n    function destroyToken(){\r\n        require(msg.sender==admin);\r\n        suicide(admin);\r\n    }\r\n}",
  "sourcePath": "C:\\xampp\\htdocs\\tokencreation\\contracts\\HToken.sol",
  "compiler": {
    "name": "solc",
    "version": "0.4.24+commit.e67f0147.Emscripten.clang"
  },
  "schemaVersion": "2.0.0",
  "updatedAt": "2018-06-22T06:07:04.544Z"
}